:100000007DC08AC0A3C088C087C086C085C084C0A8
:1000100083C082C081C080C07FC07EC07DC07CC0E4
:100020007BC005010904A101A102050109300931C4
:100030001581257F75089502810205091901290896
:1000400015002501750195088102C0C014034900FF
:100050004D004A004F0059003000300030003100A0
:100060003E0349006D006D006F0072007400610076
:100070006C0020004A006F00790073007400690072
:1000800063006B0073002000550053004200200005
:100090004100640061007000740065007200260376
:1000A00049006D006D006F007200740061006C000B
:1000B00020004A006F00790073007400690063003B
:1000C0006B0073000403090409022200010100808F
:1000D00032090400000103000000092101010001B0
:1000E000222A000705810308000A120110010000FE
:1000F0000008C016DC2700010102030111241FBE05
:10010000CFEDCDBF20E0A0E6B0E001C01D92AC393C
:10011000B207E1F755D1F5C273CFA82FB92F80E010
:1001200090E041E050EA609530E009C02D918227CF
:100130009795879510F084279527305EC8F36F5FF9
:10014000A8F30895EADF8D939D930895CF93CFB7D9
:10015000CF93C395C89BE9F7C89B09C0C89B07C04C
:10016000C89B05C0C89B03C0C89B01C0A3C0DF9348
:10017000C0918100DD27CA57DF4FC89B02C0DF91C5
:10018000EBCF2F930F931F9309B32FEF00FB20F9B1
:100190004F933F9319B34FEF012700FB21F93BE049
:1001A00031C04E7F012F19B3216028C0102F4D7F21
:1001B0002260000009B329C04B7F2460012F00009A
:1001C00019B32BC019B3477F28602AC04F7E09B3EB
:1001D00020612CC04F7D19B320622FC04F7B09B323
:1001E000206432C0422709B349934FEF0000102723
:1001F00010FB20F919B31370C9F1297F91F201277F
:1002000000FB21F909B3237F89F2315058F11027FF
:1002100010FB22F919B3277E79F2012700FB23F99D
:100220002F7C81F209B3102710FB24F92F7971F28A
:1002300000C019B3012700FB25F92F7359F200C044
:1002400009B3102710FB26F9223040F200C019B381
:10025000012700FB27F9243028F64F77206819B3CF
:100260000000F9CF10E11ABF002719C03B503195AB
:10027000C31BD04010E11ABF0881033CF9F00B34D6
:10028000E9F020917F001981110F1213EDCF4A81FF
:10029000441F093641F10D3211F0013E29F7009358
:1002A00085003F914F911F910F912F91DF91CAB718
:1002B000C4FD4FCFCF91CFBFCF911895209185002E
:1002C000222379F310918300112369F534306AF108
:1002D0003093830020938000109181003BE0311B1C
:1002E0003093810022C0009183000130E4F40AE5DC
:1002F0004F7049F43091820034FD19C000938200A0
:10030000C8E6D0E018C03091730034FD10C00093EF
:100310007300C4E7D0E00FC02795A8F45150A9F4AA
:10032000220F0000F9CF4AE503C042ED01C0432F80
:10033000C4E1D0E032E01AB31360D89A1ABB0BB311
:1003400020E413E05F93012756E00BBB279520F4D0
:10035000515021F4220FF9CF012756E000003B5AFB
:100360000BBBD0F2279528F4515029F4220F00003E
:10037000F9CF012756E027950BBB20F4515021F40B
:10038000220FF9CF012756E0299133230BBB21F629
:100390000C7F10918400110FC651D0400BBB11F09F
:1003A00010937F0010E11ABF01601AB31C7F402F29
:1003B0004C7F5F9100C000C00BBB1ABB4BBB71CF21
:1003C0000FB6F894A89581B5886181BD11BC0FBEA8
:1003D0008FEF809364009AE590938200919A8BB797
:1003E00080618BBF8BE480937400909373008AB319
:1003F00083708ABB8CEF8BBBBA9884E088BB00000B
:10040000109266001092650010926700789423ECB9
:10041000222E3AED432E30E0532E4CE4642E40E081
:10042000742EC0E6D0E00EE910E054ECE52E50E06A
:10043000F52E68ECC62E60E0D62E7AEEA72E70E080
:10044000B72EE5E68E2EE0E09E2E8091830083504D
:1004500087FD30C0909180009D3251F5883041F584
:1004600080918100ECE0F0E0E81BF109EA57FF4FD2
:10047000209268008AE5809382001092610080815A
:10048000807609F4B2C0803209F028C181818130C0
:1004900009F024C1909263008092620083E097810A
:1004A000911104C09681981708F4892F80936400F5
:1004B000109283008091820084FF48C08091640084
:1004C0008F3F09F443C0382E893010F098E0392E60
:1004D000982F9319909364009091680028E89227D0
:1004E00090936800882329F18091620090916300C5
:1004F000409161009C012856304046FFF1C0A8E6BB
:10050000B0E0432DF901EA0FFB1FE4911196EC9343
:100510001197415011964111F5CF9C012F5F3F4F2C
:100520008FEF830D820F932F911D90936300809323
:100530006200632D89E690E005DE84E0830D8C3057
:1005400019F09FEF909364008093820084E199B347
:10055000937031F48150D9F71092840010927F008B
:100560008091730084FF71CF99B331E894FF03C089
:1005700030E093FF3FE721E896FF03C020E095FFBE
:100580002FE7892F8095881F8827881F92FF826018
:10059000B29B806890916500931309C090916600AA
:1005A000921305C090916700981709F44ECF3093CD
:1005B000650020936600809367009091730094FF1C
:1005C0009CC09091740048E89427909374003093F5
:1005D0007500209376008093770063E085E790E0D4
:1005E000B1DD87E08093730030CF228110927100DB
:1005F000918191110AC01092720021E730E082E0EF
:1006000030936300209362004ACF953029F4209301
:10061000840021E730E0F4CF963009F048C09381A0
:10062000913049F4B0926300A092620082E190E4BC
:100630009093610034CF923031F4D0926300C09235
:10064000620082E2F4CF933001F5211106C0F092EE
:100650006300E092620084E0EACF213031F410932D
:1006600063000093620086E2E2CF223031F4D0933F
:100670006300C09362008EE3DACF2330C1F670923C
:1006800063006092620084E1D2CF913231F45092E3
:1006900063004092620089E0CACF923241F682E262
:1006A00090E090936300809362008AE2C0CF98301C
:1006B00071F0993019F420936000ABCF9A3059F063
:1006C0009B3009F0A6CF9BE490937400A2CF20E664
:1006D00030E081E095CF21E730E0FBCF80E0DFCE56
:1006E000E8E6F0E0432DD901AE0FBF1F5C915183C6
:1006F000415031964111F7CF10CF9AE59093730096
:0607000066CFF894FFCF64
:00000001FF
